{
  "address": "0x05D76003D5b4fEC7736E3ee0C3CB07f29a41A88D",
  "abi": [
    {
      "inputs": [
        {
          "internalType": "address",
          "name": "priceFeedAddress",
          "type": "address"
        }
      ],
      "stateMutability": "nonpayable",
      "type": "constructor"
    },
    {
      "inputs": [],
      "name": "NotOwner",
      "type": "error"
    },
    {
      "stateMutability": "payable",
      "type": "fallback"
    },
    {
      "inputs": [],
      "name": "MINIMUM_USD",
      "outputs": [
        {
          "internalType": "uint256",
          "name": "",
          "type": "uint256"
        }
      ],
      "stateMutability": "view",
      "type": "function"
    },
    {
      "inputs": [
        {
          "internalType": "address",
          "name": "",
          "type": "address"
        }
      ],
      "name": "addressAmountFunded",
      "outputs": [
        {
          "internalType": "uint256",
          "name": "",
          "type": "uint256"
        }
      ],
      "stateMutability": "view",
      "type": "function"
    },
    {
      "inputs": [],
      "name": "fund",
      "outputs": [],
      "stateMutability": "payable",
      "type": "function"
    },
    {
      "inputs": [
        {
          "internalType": "uint256",
          "name": "",
          "type": "uint256"
        }
      ],
      "name": "funders",
      "outputs": [
        {
          "internalType": "address",
          "name": "",
          "type": "address"
        }
      ],
      "stateMutability": "view",
      "type": "function"
    },
    {
      "inputs": [],
      "name": "i_owner",
      "outputs": [
        {
          "internalType": "address",
          "name": "",
          "type": "address"
        }
      ],
      "stateMutability": "view",
      "type": "function"
    },
    {
      "inputs": [],
      "name": "priceFeed",
      "outputs": [
        {
          "internalType": "contract AggregatorV3Interface",
          "name": "",
          "type": "address"
        }
      ],
      "stateMutability": "view",
      "type": "function"
    },
    {
      "inputs": [],
      "name": "withdraw",
      "outputs": [],
      "stateMutability": "nonpayable",
      "type": "function"
    },
    {
      "stateMutability": "payable",
      "type": "receive"
    }
  ],
  "transactionHash": "0x86b1363f1df4a8938c40d693a15a4d0de053bd384ea8b206f1d91efa53e6e4b7",
  "args": [
    "0x694AA1769357215DE4FAC081bf1f309aDC325306"
  ],
  "numDeployments": 1,
  "solcInputHash": "dd187b16caf22d900cafeb5f0d46076d",
  "bytecode": "0x60a060405234801561001057600080fd5b50604051610f96380380610f9683398181016040528101906100329190610110565b3373ffffffffffffffffffffffffffffffffffffffff1660808173ffffffffffffffffffffffffffffffffffffffff168152505080600260006101000a81548173ffffffffffffffffffffffffffffffffffffffff021916908373ffffffffffffffffffffffffffffffffffffffff1602179055505061013d565b600080fd5b600073ffffffffffffffffffffffffffffffffffffffff82169050919050565b60006100dd826100b2565b9050919050565b6100ed816100d2565b81146100f857600080fd5b50565b60008151905061010a816100e4565b92915050565b600060208284031215610126576101256100ad565b5b6000610134848285016100fb565b91505092915050565b608051610e3761015f6000396000818161030a01526105950152610e376000f3fe6080604052600436106100745760003560e01c8063b60d42881161004e578063b60d4288146100fa578063ba044c1014610104578063dba6335f14610141578063dc0d3dff1461016c57610083565b80633ccfd60b1461008d5780636b69a592146100a4578063741bef1a146100cf57610083565b36610083576100816101a9565b005b61008b6101a9565b005b34801561009957600080fd5b506100a2610308565b005b3480156100b057600080fd5b506100b9610548565b6040516100c69190610806565b60405180910390f35b3480156100db57600080fd5b506100e4610555565b6040516100f191906108a0565b60405180910390f35b6101026101a9565b005b34801561011057600080fd5b5061012b600480360381019061012691906108fe565b61057b565b6040516101389190610806565b60405180910390f35b34801561014d57600080fd5b50610156610593565b604051610163919061093a565b60405180910390f35b34801561017857600080fd5b50610193600480360381019061018e9190610981565b6105b7565b6040516101a0919061093a565b60405180910390f35b6101de600260009054906101000a900473ffffffffffffffffffffffffffffffffffffffff16346105f690919063ffffffff16565b506802b5e3af16b188000061021e600260009054906101000a900473ffffffffffffffffffffffffffffffffffffffff16346105f690919063ffffffff16565b101561025f576040517f08c379a000000000000000000000000000000000000000000000000000000000815260040161025690610a0b565b60405180910390fd5b6000339080600181540180825580915050600190039060005260206000200160009091909190916101000a81548173ffffffffffffffffffffffffffffffffffffffff021916908373ffffffffffffffffffffffffffffffffffffffff16021790555034600160003373ffffffffffffffffffffffffffffffffffffffff1673ffffffffffffffffffffffffffffffffffffffff16815260200190815260200160002081905550565b7f000000000000000000000000000000000000000000000000000000000000000073ffffffffffffffffffffffffffffffffffffffff163373ffffffffffffffffffffffffffffffffffffffff160361038d576040517f30cd747100000000000000000000000000000000000000000000000000000000815260040160405180910390fd5b60005b6000805490508110156104385760008082815481106103b2576103b1610a2b565b5b9060005260206000200160009054906101000a900473ffffffffffffffffffffffffffffffffffffffff1690506000600160008373ffffffffffffffffffffffffffffffffffffffff1673ffffffffffffffffffffffffffffffffffffffff1681526020019081526020016000208190555050808061043090610a89565b915050610390565b50600067ffffffffffffffff81111561045457610453610ad1565b5b6040519080825280602002602001820160405280156104825781602001602082028036833780820191505090505b5060009080519060200190610498929190610746565b5060003373ffffffffffffffffffffffffffffffffffffffff16476040516104bf90610b31565b60006040518083038185875af1925050503d80600081146104fc576040519150601f19603f3d011682016040523d82523d6000602084013e610501565b606091505b5050905080610545576040517f08c379a000000000000000000000000000000000000000000000000000000000815260040161053c90610b92565b60405180910390fd5b50565b6802b5e3af16b188000081565b600260009054906101000a900473ffffffffffffffffffffffffffffffffffffffff1681565b60016020528060005260406000206000915090505481565b7f000000000000000000000000000000000000000000000000000000000000000081565b600081815481106105c757600080fd5b906000526020600020016000915054906101000a900473ffffffffffffffffffffffffffffffffffffffff1681565b60006106018261063d565b50600061060d836106b5565b90506000670de0b6b3a764000085836106269190610bb2565b6106309190610c23565b9050809250505092915050565b60008173ffffffffffffffffffffffffffffffffffffffff166354fd4d506040518163ffffffff1660e01b8152600401602060405180830381865afa15801561068a573d6000803e3d6000fd5b505050506040513d601f19601f820116820180604052508101906106ae9190610c69565b9050919050565b6000808273ffffffffffffffffffffffffffffffffffffffff1663feaf968c6040518163ffffffff1660e01b815260040160a060405180830381865afa158015610703573d6000803e3d6000fd5b505050506040513d601f19601f820116820180604052508101906107279190610d0e565b5050509150506402540be4008161073e9190610d89565b915050919050565b8280548282559060005260206000209081019282156107bf579160200282015b828111156107be5782518260006101000a81548173ffffffffffffffffffffffffffffffffffffffff021916908373ffffffffffffffffffffffffffffffffffffffff16021790555091602001919060010190610766565b5b5090506107cc91906107d0565b5090565b5b808211156107e95760008160009055506001016107d1565b5090565b6000819050919050565b610800816107ed565b82525050565b600060208201905061081b60008301846107f7565b92915050565b600073ffffffffffffffffffffffffffffffffffffffff82169050919050565b6000819050919050565b600061086661086161085c84610821565b610841565b610821565b9050919050565b60006108788261084b565b9050919050565b600061088a8261086d565b9050919050565b61089a8161087f565b82525050565b60006020820190506108b56000830184610891565b92915050565b600080fd5b60006108cb82610821565b9050919050565b6108db816108c0565b81146108e657600080fd5b50565b6000813590506108f8816108d2565b92915050565b600060208284031215610914576109136108bb565b5b6000610922848285016108e9565b91505092915050565b610934816108c0565b82525050565b600060208201905061094f600083018461092b565b92915050565b61095e816107ed565b811461096957600080fd5b50565b60008135905061097b81610955565b92915050565b600060208284031215610997576109966108bb565b5b60006109a58482850161096c565b91505092915050565b600082825260208201905092915050565b7f6e6f7420656e6f75676800000000000000000000000000000000000000000000600082015250565b60006109f5600a836109ae565b9150610a00826109bf565b602082019050919050565b60006020820190508181036000830152610a24816109e8565b9050919050565b7f4e487b7100000000000000000000000000000000000000000000000000000000600052603260045260246000fd5b7f4e487b7100000000000000000000000000000000000000000000000000000000600052601160045260246000fd5b6000610a94826107ed565b91507fffffffffffffffffffffffffffffffffffffffffffffffffffffffffffffffff8203610ac657610ac5610a5a565b5b600182019050919050565b7f4e487b7100000000000000000000000000000000000000000000000000000000600052604160045260246000fd5b600081905092915050565b50565b6000610b1b600083610b00565b9150610b2682610b0b565b600082019050919050565b6000610b3c82610b0e565b9150819050919050565b7f43616c6c204661696c6564000000000000000000000000000000000000000000600082015250565b6000610b7c600b836109ae565b9150610b8782610b46565b602082019050919050565b60006020820190508181036000830152610bab81610b6f565b9050919050565b6000610bbd826107ed565b9150610bc8836107ed565b9250828202610bd6816107ed565b91508282048414831517610bed57610bec610a5a565b5b5092915050565b7f4e487b7100000000000000000000000000000000000000000000000000000000600052601260045260246000fd5b6000610c2e826107ed565b9150610c39836107ed565b925082610c4957610c48610bf4565b5b828204905092915050565b600081519050610c6381610955565b92915050565b600060208284031215610c7f57610c7e6108bb565b5b6000610c8d84828501610c54565b91505092915050565b600069ffffffffffffffffffff82169050919050565b610cb581610c96565b8114610cc057600080fd5b50565b600081519050610cd281610cac565b92915050565b6000819050919050565b610ceb81610cd8565b8114610cf657600080fd5b50565b600081519050610d0881610ce2565b92915050565b600080600080600060a08688031215610d2a57610d296108bb565b5b6000610d3888828901610cc3565b9550506020610d4988828901610cf9565b9450506040610d5a88828901610c54565b9350506060610d6b88828901610c54565b9250506080610d7c88828901610cc3565b9150509295509295909350565b6000610d9482610cd8565b9150610d9f83610cd8565b9250828202610dad81610cd8565b91507f80000000000000000000000000000000000000000000000000000000000000008414600084121615610de557610de4610a5a565b5b8282058414831517610dfa57610df9610a5a565b5b509291505056fea26469706673582212201073953380e77a4a771f9acb7f93c33a27f7044c16267051fdc849a3042cfb6d64736f6c63430008120033",
  "devdoc": {
    "kind": "dev",
    "methods": {},
    "version": 1
  },
  "userdoc": {
    "kind": "user",
    "methods": {
      "funders(uint256)": {
        "notice": "1*10**18"
      }
    },
    "version": 1
  },
  "storageLayout": {
    "storage": [
      {
        "astId": 62,
        "contract": "contracts/FundMe.sol:FundMe",
        "label": "funders",
        "offset": 0,
        "slot": "0",
        "type": "t_array(t_address)dyn_storage"
      },
      {
        "astId": 66,
        "contract": "contracts/FundMe.sol:FundMe",
        "label": "addressAmountFunded",
        "offset": 0,
        "slot": "1",
        "type": "t_mapping(t_address,t_uint256)"
      },
      {
        "astId": 71,
        "contract": "contracts/FundMe.sol:FundMe",
        "label": "priceFeed",
        "offset": 0,
        "slot": "2",
        "type": "t_contract(AggregatorV3Interface)45"
      }
    ],
    "types": {
      "t_address": {
        "encoding": "inplace",
        "label": "address",
        "numberOfBytes": "20"
      },
      "t_array(t_address)dyn_storage": {
        "base": "t_address",
        "encoding": "dynamic_array",
        "label": "address[]",
        "numberOfBytes": "32"
      },
      "t_contract(AggregatorV3Interface)45": {
        "encoding": "inplace",
        "label": "contract AggregatorV3Interface",
        "numberOfBytes": "20"
      },
      "t_mapping(t_address,t_uint256)": {
        "encoding": "mapping",
        "key": "t_address",
        "label": "mapping(address => uint256)",
        "numberOfBytes": "32",
        "value": "t_uint256"
      },
      "t_uint256": {
        "encoding": "inplace",
        "label": "uint256",
        "numberOfBytes": "32"
      }
    }
  }
}